{
  "contractName": "Faucet",
  "abi": [
    {
      "stateMutability": "payable",
      "type": "receive",
      "payable": true
    },
    {
      "inputs": [],
      "name": "balance",
      "outputs": [
        {
          "internalType": "uint256",
          "name": "",
          "type": "uint256"
        }
      ],
      "stateMutability": "view",
      "type": "function",
      "constant": true
    },
    {
      "inputs": [],
      "name": "addFunds",
      "outputs": [],
      "stateMutability": "payable",
      "type": "function",
      "payable": true
    },
    {
      "inputs": [
        {
          "internalType": "uint256",
          "name": "amount",
          "type": "uint256"
        }
      ],
      "name": "withdraw",
      "outputs": [],
      "stateMutability": "nonpayable",
      "type": "function"
    }
  ],
  "bytecode": "0x608060405234801561001057600080fd5b506102ae806100206000396000f3fe6080604052600436106100385760003560e01c80632e1a7d4d14610044578063a26759cb1461006d578063b69ef8a8146100775761003f565b3661003f57005b600080fd5b34801561005057600080fd5b5061006b6004803603810190610066919061017e565b6100a2565b005b610075610139565b005b34801561008357600080fd5b5061008c61013b565b60405161009991906101ba565b60405180910390f35b806710a741a4627800008111156100ee576040517f08c379a00000000000000000000000000000000000000000000000000000000081526004016100e590610258565b60405180910390fd5b3373ffffffffffffffffffffffffffffffffffffffff166108fc839081150290604051600060405180830381858888f19350505050158015610134573d6000803e3d6000fd5b505050565b565b600047905090565b600080fd5b6000819050919050565b61015b81610148565b811461016657600080fd5b50565b60008135905061017881610152565b92915050565b60006020828403121561019457610193610143565b5b60006101a284828501610169565b91505092915050565b6101b481610148565b82525050565b60006020820190506101cf60008301846101ab565b92915050565b600082825260208201905092915050565b7f596f752063616e74207769746864726177206d6f7265207468616e206c696d6960008201527f7420000000000000000000000000000000000000000000000000000000000000602082015250565b60006102426022836101d5565b915061024d826101e6565b604082019050919050565b6000602082019050818103600083015261027181610235565b905091905056fea2646970667358221220356549f31d6b01c848098b074c14b38a1eb09171819b8bd007dbfb81ee3d325b64736f6c634300080b0033",
  "immutableReferences": {},
  "source": "pragma solidity >=0.4.22 <0.9.0;\r\ncontract Faucet{\r\n\r\n\r\n    modifier limitWithdraw(uint amount){\r\n        require(amount<=1200000000000000000,\"You cant withdraw more than limit \");\r\n        _;\r\n    }\r\n\r\n\r\n    function balance() view external returns(uint256){  // to check balance in smart contract \r\n        return address(this).balance;\r\n    }\r\n    receive() external payable {  }     // special function to recive eth from other accounts\r\n    function addFunds() external payable{} \r\n    function withdraw(uint amount) external limitWithdraw(amount){\r\n        payable(msg.sender).transfer(amount);\r\n    }\r\n}",
  "sourcePath": "C:\\Users\\91756\\Desktop\\BlockChain\\faucet\\contracts\\FaucetContract.sol",
  "compiler": {
    "name": "solc",
    "version": "0.8.11+commit.d7f03943.Emscripten.clang"
  },
  "schemaVersion": "3.4.4",
  "updatedAt": "2022-08-15T09:26:21.771Z",
  "networkType": "ethereum",
  "devdoc": {
    "kind": "dev",
    "methods": {},
    "version": 1
  },
  "userdoc": {
    "kind": "user",
    "methods": {},
    "version": 1
  }
}